{
  "contractName": "ProofOfOwnership",
  "abi": [
    {
      "constant": true,
      "inputs": [
        {
          "name": "",
          "type": "bytes32"
        }
      ],
      "name": "assetOwners",
      "outputs": [
        {
          "name": "",
          "type": "address"
        }
      ],
      "payable": false,
      "stateMutability": "view",
      "type": "function"
    },
    {
      "constant": true,
      "inputs": [
        {
          "name": "asset",
          "type": "bytes32"
        }
      ],
      "name": "queryAsset",
      "outputs": [
        {
          "name": "",
          "type": "address"
        }
      ],
      "payable": false,
      "stateMutability": "view",
      "type": "function"
    },
    {
      "constant": false,
      "inputs": [
        {
          "name": "asset",
          "type": "bytes32"
        }
      ],
      "name": "registerAsset",
      "outputs": [],
      "payable": false,
      "stateMutability": "nonpayable",
      "type": "function"
    },
    {
      "constant": false,
      "inputs": [
        {
          "name": "asset",
          "type": "bytes32"
        },
        {
          "name": "owner",
          "type": "address"
        }
      ],
      "name": "transferAsset",
      "outputs": [],
      "payable": false,
      "stateMutability": "nonpayable",
      "type": "function"
    },
    {
      "constant": false,
      "inputs": [
        {
          "name": "asset",
          "type": "bytes32"
        }
      ],
      "name": "deleteAsset",
      "outputs": [],
      "payable": false,
      "stateMutability": "nonpayable",
      "type": "function"
    }
  ],
  "bytecode": "0x608060405234801561001057600080fd5b5061049e806100206000396000f30060806040526004361061006d576000357c0100000000000000000000000000000000000000000000000000000000900463ffffffff1680634f6917a9146100725780635b01afb5146100e35780636ad527f31461011457806377e6b6a614610165578063df5f558214610196575b600080fd5b34801561007e57600080fd5b506100a16004803603810190808035600019169060200190929190505050610207565b604051808273ffffffffffffffffffffffffffffffffffffffff1673ffffffffffffffffffffffffffffffffffffffff16815260200191505060405180910390f35b3480156100ef57600080fd5b50610112600480360381019080803560001916906020019092919050505061023a565b005b34801561012057600080fd5b506101636004803603810190808035600019169060200190929190803573ffffffffffffffffffffffffffffffffffffffff169060200190929190505050610296565b005b34801561017157600080fd5b506101946004803603810190808035600019169060200190929190505050610362565b005b3480156101a257600080fd5b506101c5600480360381019080803560001916906020019092919050505061042e565b604051808273ffffffffffffffffffffffffffffffffffffffff1673ffffffffffffffffffffffffffffffffffffffff16815260200191505060405180910390f35b60006020528060005260406000206000915054906101000a900473ffffffffffffffffffffffffffffffffffffffff1681565b33600080836000191660001916815260200190815260200160002060006101000a81548173ffffffffffffffffffffffffffffffffffffffff021916908373ffffffffffffffffffffffffffffffffffffffff16021790555050565b3373ffffffffffffffffffffffffffffffffffffffff16600080846000191660001916815260200190815260200160002060009054906101000a900473ffffffffffffffffffffffffffffffffffffffff1673ffffffffffffffffffffffffffffffffffffffff16141561035e5780600080846000191660001916815260200190815260200160002060006101000a81548173ffffffffffffffffffffffffffffffffffffffff021916908373ffffffffffffffffffffffffffffffffffffffff1602179055505b5050565b3373ffffffffffffffffffffffffffffffffffffffff16600080836000191660001916815260200190815260200160002060009054906101000a900473ffffffffffffffffffffffffffffffffffffffff1673ffffffffffffffffffffffffffffffffffffffff16141561042b576000806000836000191660001916815260200190815260200160002060006101000a81548173ffffffffffffffffffffffffffffffffffffffff021916908373ffffffffffffffffffffffffffffffffffffffff1602179055505b50565b6000806000836000191660001916815260200190815260200160002060009054906101000a900473ffffffffffffffffffffffffffffffffffffffff1690509190505600a165627a7a72305820ad25ad2fef47f87ca580fcd6fd77c340c853179122e796be531aeef9f921be380029",
  "source": "pragma solidity ^0.4.23;\n\ncontract ProofOfOwnership {\n\n    mapping (bytes32 => address) public assetOwners;\n\n    function queryAsset(bytes32 asset) view public returns (address) {\n\n        return assetOwners[asset];\n  }\n\n    function registerAsset(bytes32 asset) public {\n\n            assetOwners[asset] = msg.sender;\n\n  }\n\n    function transferAsset(bytes32 asset, address owner) public {\n\n        if (assetOwners[asset] == msg.sender)\n        {\n            assetOwners[asset] = owner;\n        }\n    }\n\n    function deleteAsset(bytes32 asset) public {\n\n        if (assetOwners[asset] == msg.sender)\n        {\n            assetOwners[asset] = 0x0000000000000000000000000000000000000000;\n        }\n    }\n\n\n}\n\n",
  "sourcePath": "/home/koshik/Documents/Packt Book/blockchainbook/chapter7/ethereum/proof_of_ownership_app/contracts/ProofOfOwnership.sol",
  "compiler": {
    "name": "solc",
    "version": "0.4.24+commit.e67f0147.Emscripten.clang"
  },
  "schemaVersion": "2.0.0",
  "updatedAt": "2018-11-27T10:00:08.126Z"
}