{
  "contractName": "Hello",
  "abi": [
    {
      "constant": true,
      "inputs": [
        {
          "name": "user",
          "type": "bytes"
        }
      ],
      "name": "greetUser",
      "outputs": [
        {
          "name": "",
          "type": "bytes"
        }
      ],
      "payable": false,
      "stateMutability": "view",
      "type": "function"
    }
  ],
  "bytecode": "0x608060405234801561001057600080fd5b506101f2806100206000396000f300608060405260043610610041576000357c0100000000000000000000000000000000000000000000000000000000900463ffffffff168063c027c55714610046575b600080fd5b34801561005257600080fd5b506100ad600480360381019080803590602001908201803590602001908080601f0160208091040260200160405190810160405280939291908181526020018383808284378201915050505050509192919290505050610128565b6040518080602001828103825283818151815260200191508051906020019080838360005b838110156100ed5780820151818401526020810190506100d2565b50505050905090810190601f16801561011a5780820380516001836020036101000a031916815260200191505b509250505060405180910390f35b60608160405160200180807f48656c6c6f20000000000000000000000000000000000000000000000000000081525060060182805190602001908083835b60208310151561018b5780518252602082019150602081019050602083039250610166565b6001836020036101000a03801982511681845116808217855250505050505090500191505060405160208183030381529060405290509190505600a165627a7a7230582021aa303b71cbfa8b9d30c71664f407a357b108ce7e237342baa02ec2fcee85c80029",
  "source": "pragma solidity ^0.4.23;\n\ncontract Hello {\n\n  function greetUser(bytes user) view public returns (bytes) {\n      return abi.encodePacked(\"Hello \", user);\n\n}\n}\n",
  "sourcePath": "/home/koshik/Documents/Packt Book/blockchainbook/chapter7/ethereum/contracts/contracts/Hello.sol",
  "compiler": {
    "name": "solc",
    "version": "0.4.24+commit.e67f0147.Emscripten.clang"
  },
  "schemaVersion": "2.0.0",
  "updatedAt": "2018-11-27T08:28:26.176Z"
}